{
  "contractName": "MarketPlace",
  "abi": [
    {
      "inputs": [],
      "payable": false,
      "stateMutability": "nonpayable",
      "type": "constructor"
    },
    {
      "anonymous": false,
      "inputs": [
        {
          "indexed": false,
          "internalType": "uint256",
          "name": "id",
          "type": "uint256"
        },
        {
          "indexed": false,
          "internalType": "string",
          "name": "name",
          "type": "string"
        },
        {
          "indexed": false,
          "internalType": "uint256",
          "name": "price",
          "type": "uint256"
        },
        {
          "indexed": false,
          "internalType": "address",
          "name": "owner",
          "type": "address"
        },
        {
          "indexed": false,
          "internalType": "bool",
          "name": "purchased",
          "type": "bool"
        }
      ],
      "name": "ProductCreated",
      "type": "event"
    },
    {
      "constant": true,
      "inputs": [],
      "name": "name",
      "outputs": [
        {
          "internalType": "string",
          "name": "",
          "type": "string"
        }
      ],
      "payable": false,
      "stateMutability": "view",
      "type": "function"
    },
    {
      "constant": true,
      "inputs": [],
      "name": "productCount",
      "outputs": [
        {
          "internalType": "uint256",
          "name": "",
          "type": "uint256"
        }
      ],
      "payable": false,
      "stateMutability": "view",
      "type": "function"
    },
    {
      "constant": true,
      "inputs": [
        {
          "internalType": "uint256",
          "name": "",
          "type": "uint256"
        }
      ],
      "name": "products",
      "outputs": [
        {
          "internalType": "uint256",
          "name": "id",
          "type": "uint256"
        },
        {
          "internalType": "string",
          "name": "name",
          "type": "string"
        },
        {
          "internalType": "uint256",
          "name": "price",
          "type": "uint256"
        },
        {
          "internalType": "address",
          "name": "owner",
          "type": "address"
        },
        {
          "internalType": "bool",
          "name": "purchased",
          "type": "bool"
        }
      ],
      "payable": false,
      "stateMutability": "view",
      "type": "function"
    },
    {
      "constant": false,
      "inputs": [
        {
          "internalType": "string",
          "name": "_name",
          "type": "string"
        },
        {
          "internalType": "uint256",
          "name": "_price",
          "type": "uint256"
        }
      ],
      "name": "createProduct",
      "outputs": [],
      "payable": false,
      "stateMutability": "nonpayable",
      "type": "function"
    }
  ],
  "bytecode": "0x6080604052600060015534801561001557600080fd5b506040518060400160405280601c81526020017f4441707020756e6976657273697479206d61726b657420506c6163650000000081525060009080519060200190610061929190610067565b5061010c565b828054600181600116156101000203166002900490600052602060002090601f016020900481019282601f106100a857805160ff19168380011785556100d6565b828001600101855582156100d6579182015b828111156100d55782518255916020019190600101906100ba565b5b5090506100e391906100e7565b5090565b61010991905b808211156101055760008160009055506001016100ed565b5090565b90565b61071a8061011b6000396000f3fe608060405234801561001057600080fd5b506004361061004c5760003560e01c806306fdde03146100515780637acc0b20146100d4578063e0f6ef87146101c7578063e9300c6c146101e5575b600080fd5b6100596102aa565b6040518080602001828103825283818151815260200191508051906020019080838360005b8381101561009957808201518184015260208101905061007e565b50505050905090810190601f1680156100c65780820380516001836020036101000a031916815260200191505b509250505060405180910390f35b610100600480360360208110156100ea57600080fd5b8101908080359060200190929190505050610348565b60405180868152602001806020018581526020018473ffffffffffffffffffffffffffffffffffffffff1673ffffffffffffffffffffffffffffffffffffffff16815260200183151515158152602001828103825286818151815260200191508051906020019080838360005b8381101561018857808201518184015260208101905061016d565b50505050905090810190601f1680156101b55780820380516001836020036101000a031916815260200191505b50965050505050505060405180910390f35b6101cf610443565b6040518082815260200191505060405180910390f35b6102a8600480360360408110156101fb57600080fd5b810190808035906020019064010000000081111561021857600080fd5b82018360208201111561022a57600080fd5b8035906020019184600183028401116401000000008311171561024c57600080fd5b91908080601f016020809104026020016040519081016040528093929190818152602001838380828437600081840152601f19601f82011690508083019250505050505050919291929080359060200190929190505050610449565b005b60008054600181600116156101000203166002900480601f0160208091040260200160405190810160405280929190818152602001828054600181600116156101000203166002900480156103405780601f1061031557610100808354040283529160200191610340565b820191906000526020600020905b81548152906001019060200180831161032357829003601f168201915b505050505081565b6002602052806000526040600020600091509050806000015490806001018054600181600116156101000203166002900480601f0160208091040260200160405190810160405280929190818152602001828054600181600116156101000203166002900480156103fa5780601f106103cf576101008083540402835291602001916103fa565b820191906000526020600020905b8154815290600101906020018083116103dd57829003601f168201915b5050505050908060020154908060030160009054906101000a900473ffffffffffffffffffffffffffffffffffffffff16908060030160149054906101000a900460ff16905085565b60015481565b6001600081548092919060010191905055506040518060a0016040528060015481526020018381526020018281526020013373ffffffffffffffffffffffffffffffffffffffff168152602001600015158152506002600060015481526020019081526020016000206000820151816000015560208201518160010190805190602001906104d8929190610640565b506040820151816002015560608201518160030160006101000a81548173ffffffffffffffffffffffffffffffffffffffff021916908373ffffffffffffffffffffffffffffffffffffffff16021790555060808201518160030160146101000a81548160ff0219169083151502179055509050507fbc59c0c8165864dcceb377dd07d8f431d4303f8e501cb0a0374a10cc68d71836600154838333600060405180868152602001806020018581526020018473ffffffffffffffffffffffffffffffffffffffff1673ffffffffffffffffffffffffffffffffffffffff16815260200183151515158152602001828103825286818151815260200191508051906020019080838360005b838110156105fe5780820151818401526020810190506105e3565b50505050905090810190601f16801561062b5780820380516001836020036101000a031916815260200191505b50965050505050505060405180910390a15050565b828054600181600116156101000203166002900490600052602060002090601f016020900481019282601f1061068157805160ff19168380011785556106af565b828001600101855582156106af579182015b828111156106ae578251825591602001919060010190610693565b5b5090506106bc91906106c0565b5090565b6106e291905b808211156106de5760008160009055506001016106c6565b5090565b9056fea265627a7a72315820e601ecc86f6059252b5c2b302452c788c8daacd9919c70debf81dcf1dce1d05b64736f6c63430005100032",
  "source": "pragma solidity ^0.5.0;\n\ncontract MarketPlace{\n    string public name;\n    // to check how many product are there in map\n    uint public productCount = 0;\n\n    // uint is the key - that will be product id , \n    // product is value stored in key\n    // products is the name of the map\n    mapping(uint=>Product) public products ;\n     struct Product{\n        uint id;\n        string name;\n        uint price;\n        address owner;\n        bool purchased;\n     } \n\n    constructor() public {\n    name=\"DApp university market Place\";\n    }\n    \n\n    event ProductCreated(\n        uint id,\n        string name,\n        uint price,\n        address owner,\n        bool purchased\n    );\n\n\n    function createProduct(string memory _name,uint _price) public {\n \n\n // make sure parameters are correct \n    // Increment product count\n       productCount++;\n       // create product\n       products[productCount]= Product(productCount,_name,_price,msg.sender,false);\n         // we can check the log by triggering events\n          // trigger event - tell blockchain that something has happend\n    \n       emit ProductCreated(productCount,_name,_price,msg.sender,false);\n    }\n\n\n    \n\n}",
  "sourcePath": "/home/tuba/Work-Folder/BlockChain-Developement/Dapp_Ecommerce_project/src/contracts/MarketPlace.sol",
  "compiler": {
    "name": "solc",
    "version": "0.5.16+commit.9c3226ce.Emscripten.clang"
  },
  "schemaVersion": "3.4.8",
  "updatedAt": "2022-09-01T18:08:51.054Z",
  "devdoc": {
    "methods": {}
  },
  "userdoc": {
    "methods": {}
  }
}